{
  "_format": "hh-sol-artifact-1",
  "contractName": "TokenTransfer",
  "sourceName": "contracts/TokenTransfer.sol",
  "abi": [
    {
      "inputs": [
        {
          "internalType": "address",
          "name": "tokenAddress",
          "type": "address"
        }
      ],
      "stateMutability": "nonpayable",
      "type": "constructor"
    },
    {
      "inputs": [
        {
          "internalType": "address",
          "name": "to",
          "type": "address"
        },
        {
          "internalType": "uint256",
          "name": "amount",
          "type": "uint256"
        }
      ],
      "name": "transfer",
      "outputs": [],
      "stateMutability": "nonpayable",
      "type": "function"
    }
  ],
  "bytecode": "0x608060405234801561001057600080fd5b5060405161024138038061024183398101604081905261002f91610054565b600080546001600160a01b0319166001600160a01b0392909216919091179055610084565b60006020828403121561006657600080fd5b81516001600160a01b038116811461007d57600080fd5b9392505050565b6101ae806100936000396000f3fe608060405234801561001057600080fd5b506004361061002b5760003560e01c8063a9059cbb14610030575b600080fd5b61004361003e366004610117565b610045565b005b6000546040516323b872dd60e01b81523360048201526001600160a01b03848116602483015260448201849052909116906323b872dd90606401602060405180830381600087803b15801561009957600080fd5b505af11580156100ad573d6000803e3d6000fd5b505050506040513d601f19601f820116820180604052508101906100d1919061014f565b6101135760405162461bcd60e51b815260206004820152600f60248201526e151c985b9cd9995c8819985a5b1959608a1b604482015260640160405180910390fd5b5050565b6000806040838503121561012a57600080fd5b82356001600160a01b038116811461014157600080fd5b946020939093013593505050565b60006020828403121561016157600080fd5b8151801515811461017157600080fd5b939250505056fea26469706673582212200b861fe4949879aaf663d756a66167d510c907d4ef5b0cfb736577e17cd92d7764736f6c63430008090033",
  "linkReferences": {},
  "deployedLinkReferences": {}
}